{
  "contractName": "SimpleVoting",
  "abi": [
    {
      "constant": true,
      "inputs": [
        {
          "name": "",
          "type": "uint256"
        }
      ],
      "name": "proposals",
      "outputs": [
        {
          "name": "description",
          "type": "string"
        },
        {
          "name": "voteCount",
          "type": "uint256"
        }
      ],
      "payable": false,
      "stateMutability": "view",
      "type": "function"
    },
    {
      "constant": true,
      "inputs": [],
      "name": "workflowStatus",
      "outputs": [
        {
          "name": "",
          "type": "uint8"
        }
      ],
      "payable": false,
      "stateMutability": "view",
      "type": "function"
    },
    {
      "constant": true,
      "inputs": [
        {
          "name": "",
          "type": "address"
        }
      ],
      "name": "voters",
      "outputs": [
        {
          "name": "isRegistered",
          "type": "bool"
        },
        {
          "name": "hasVoted",
          "type": "bool"
        },
        {
          "name": "votedProposalId",
          "type": "uint256"
        }
      ],
      "payable": false,
      "stateMutability": "view",
      "type": "function"
    },
    {
      "constant": true,
      "inputs": [],
      "name": "administrator",
      "outputs": [
        {
          "name": "",
          "type": "address"
        }
      ],
      "payable": false,
      "stateMutability": "view",
      "type": "function"
    },
    {
      "inputs": [],
      "payable": false,
      "stateMutability": "nonpayable",
      "type": "constructor"
    },
    {
      "anonymous": false,
      "inputs": [
        {
          "indexed": false,
          "name": "voterAddress",
          "type": "address"
        }
      ],
      "name": "VoterRegisteredEvent",
      "type": "event"
    },
    {
      "anonymous": false,
      "inputs": [],
      "name": "ProposalsRegistrationStartedEvent",
      "type": "event"
    },
    {
      "anonymous": false,
      "inputs": [],
      "name": "ProposalsRegistrationEndedEvent",
      "type": "event"
    },
    {
      "anonymous": false,
      "inputs": [
        {
          "indexed": false,
          "name": "proposalId",
          "type": "uint256"
        }
      ],
      "name": "ProposalRegisteredEvent",
      "type": "event"
    },
    {
      "anonymous": false,
      "inputs": [],
      "name": "VotingSessionStartedEvent",
      "type": "event"
    },
    {
      "anonymous": false,
      "inputs": [],
      "name": "VotingSessionEndedEvent",
      "type": "event"
    },
    {
      "anonymous": false,
      "inputs": [
        {
          "indexed": false,
          "name": "voter",
          "type": "address"
        },
        {
          "indexed": false,
          "name": "proposalId",
          "type": "uint256"
        }
      ],
      "name": "VotedEvent",
      "type": "event"
    },
    {
      "anonymous": false,
      "inputs": [],
      "name": "VotesTalliedEvent",
      "type": "event"
    },
    {
      "anonymous": false,
      "inputs": [
        {
          "indexed": false,
          "name": "previousStatus",
          "type": "uint8"
        },
        {
          "indexed": false,
          "name": "newStatus",
          "type": "uint8"
        }
      ],
      "name": "WorkflowStatusChangedEvent",
      "type": "event"
    },
    {
      "constant": true,
      "inputs": [
        {
          "name": "_address",
          "type": "address"
        }
      ],
      "name": "isAdministrator",
      "outputs": [
        {
          "name": "",
          "type": "bool"
        }
      ],
      "payable": false,
      "stateMutability": "view",
      "type": "function"
    },
    {
      "constant": true,
      "inputs": [
        {
          "name": "_address",
          "type": "address"
        }
      ],
      "name": "isRegisteredVoter",
      "outputs": [
        {
          "name": "",
          "type": "bool"
        }
      ],
      "payable": false,
      "stateMutability": "view",
      "type": "function"
    },
    {
      "constant": false,
      "inputs": [
        {
          "name": "_voterAddress",
          "type": "address"
        }
      ],
      "name": "registerVoter",
      "outputs": [],
      "payable": false,
      "stateMutability": "nonpayable",
      "type": "function"
    },
    {
      "constant": false,
      "inputs": [],
      "name": "startProposalsRegistration",
      "outputs": [],
      "payable": false,
      "stateMutability": "nonpayable",
      "type": "function"
    },
    {
      "constant": false,
      "inputs": [],
      "name": "endProposalsRegistration",
      "outputs": [],
      "payable": false,
      "stateMutability": "nonpayable",
      "type": "function"
    },
    {
      "constant": false,
      "inputs": [
        {
          "name": "_proposalDescription",
          "type": "string"
        }
      ],
      "name": "registerProposal",
      "outputs": [],
      "payable": false,
      "stateMutability": "nonpayable",
      "type": "function"
    },
    {
      "constant": true,
      "inputs": [],
      "name": "getProposalsNumber",
      "outputs": [
        {
          "name": "",
          "type": "uint256"
        }
      ],
      "payable": false,
      "stateMutability": "view",
      "type": "function"
    },
    {
      "constant": true,
      "inputs": [
        {
          "name": "_index",
          "type": "uint256"
        }
      ],
      "name": "getProposalDescription",
      "outputs": [
        {
          "name": "",
          "type": "string"
        }
      ],
      "payable": false,
      "stateMutability": "view",
      "type": "function"
    },
    {
      "constant": false,
      "inputs": [],
      "name": "startVotingSession",
      "outputs": [],
      "payable": false,
      "stateMutability": "nonpayable",
      "type": "function"
    },
    {
      "constant": false,
      "inputs": [],
      "name": "endVotingSession",
      "outputs": [],
      "payable": false,
      "stateMutability": "nonpayable",
      "type": "function"
    },
    {
      "constant": false,
      "inputs": [
        {
          "name": "_proposalId",
          "type": "uint256"
        }
      ],
      "name": "vote",
      "outputs": [],
      "payable": false,
      "stateMutability": "nonpayable",
      "type": "function"
    },
    {
      "constant": false,
      "inputs": [],
      "name": "tallyVotes",
      "outputs": [],
      "payable": false,
      "stateMutability": "nonpayable",
      "type": "function"
    },
    {
      "constant": true,
      "inputs": [],
      "name": "getWinningProposalId",
      "outputs": [
        {
          "name": "",
          "type": "uint256"
        }
      ],
      "payable": false,
      "stateMutability": "view",
      "type": "function"
    },
    {
      "constant": true,
      "inputs": [],
      "name": "getWinningProposalDescription",
      "outputs": [
        {
          "name": "",
          "type": "string"
        }
      ],
      "payable": false,
      "stateMutability": "view",
      "type": "function"
    },
    {
      "constant": true,
      "inputs": [],
      "name": "getWinningProposalVoteCount",
      "outputs": [
        {
          "name": "",
          "type": "uint256"
        }
      ],
      "payable": false,
      "stateMutability": "view",
      "type": "function"
    },
    {
      "constant": true,
      "inputs": [],
      "name": "getWorkflowStatus",
      "outputs": [
        {
          "name": "",
          "type": "uint8"
        }
      ],
      "payable": false,
      "stateMutability": "view",
      "type": "function"
    }
  ],
  "bytecode": "0x608060405234801561001057600080fd5b50336000806101000a81548173ffffffffffffffffffffffffffffffffffffffff021916908373ffffffffffffffffffffffffffffffffffffffff1602179055506000600460006101000a81548160ff0219169083600581111561007057fe5b021790555061243b806100846000396000f300608060405260043610610112576000357c0100000000000000000000000000000000000000000000000000000000900463ffffffff1680630121b93f14610117578063013cf08b146101445780630a2eb301146101f1578063229acb171461024c5780632f95355b146102f257806333938b451461035b578063378a21781461038657806337d05ddc1461039d57806338db6dd31461042d57806341b1b046146104705780636c2974451461049b578063a1edffa2146104b2578063a3ec138d146104eb578063a7bfab1614610558578063da36cffe1461056f578063e09b8c79146105ca578063e81e977b146105e1578063ee74c6781461060c578063f53d0a8e14610623578063f75d64a61461067a575b600080fd5b34801561012357600080fd5b50610142600480360381019080803590602001909291905050506106b3565b005b34801561015057600080fd5b5061016f60048036038101908080359060200190929190505050610a63565b6040518080602001838152602001828103825284818151815260200191508051906020019080838360005b838110156101b557808201518184015260208101905061019a565b50505050905090810190601f1680156101e25780820380516001836020036101000a031916815260200191505b50935050505060405180910390f35b3480156101fd57600080fd5b50610232600480360381019080803573ffffffffffffffffffffffffffffffffffffffff169060200190929190505050610b2e565b604051808215151515815260200191505060405180910390f35b34801561025857600080fd5b5061027760048036038101908080359060200190929190505050610b87565b6040518080602001828103825283818151815260200191508051906020019080838360005b838110156102b757808201518184015260208101905061029c565b50505050905090810190601f1680156102e45780820380516001836020036101000a031916815260200191505b509250505060405180910390f35b3480156102fe57600080fd5b50610359600480360381019080803590602001908201803590602001908080601f0160208091040260200160405190810160405280939291908181526020018383808284378201915050505050509192919290505050610c49565b005b34801561036757600080fd5b50610370610ea5565b6040518082815260200191505060405180910390f35b34801561039257600080fd5b5061039b610f91565b005b3480156103a957600080fd5b506103b261127f565b6040518080602001828103825283818151815260200191508051906020019080838360005b838110156103f25780820151818401526020810190506103d7565b50505050905090810190601f16801561041f5780820380516001836020036101000a031916815260200191505b509250505060405180910390f35b34801561043957600080fd5b5061046e600480360381019080803573ffffffffffffffffffffffffffffffffffffffff169060200190929190505050611403565b005b34801561047c57600080fd5b506104856117d8565b6040518082815260200191505060405180910390f35b3480156104a757600080fd5b506104b06117e5565b005b3480156104be57600080fd5b506104c7611a4f565b604051808260058111156104d757fe5b60ff16815260200191505060405180910390f35b3480156104f757600080fd5b5061052c600480360381019080803573ffffffffffffffffffffffffffffffffffffffff169060200190929190505050611a62565b604051808415151515815260200183151515158152602001828152602001935050505060405180910390f35b34801561056457600080fd5b5061056d611aa6565b005b34801561057b57600080fd5b506105b0600480360381019080803573ffffffffffffffffffffffffffffffffffffffff169060200190929190505050611d0f565b604051808215151515815260200191505060405180910390f35b3480156105d657600080fd5b506105df611d68565b005b3480156105ed57600080fd5b506105f6611fd2565b6040518082815260200191505060405180910390f35b34801561061857600080fd5b5061062161209e565b005b34801561062f57600080fd5b5061063861232e565b604051808273ffffffffffffffffffffffffffffffffffffffff1673ffffffffffffffffffffffffffffffffffffffff16815260200191505060405180910390f35b34801561068657600080fd5b5061068f612353565b6040518082600581111561069f57fe5b60ff16815260200191505060405180910390f35b600160003373ffffffffffffffffffffffffffffffffffffffff1673ffffffffffffffffffffffffffffffffffffffff16815260200190815260200160002060000160009054906101000a900460ff16151561079d576040517f08c379a00000000000000000000000000000000000000000000000000000000081526004018080602001828103825260368152602001807f7468652063616c6c6572206f6620746869732066756e6374696f6e206d75737481526020017f2062652061207265676973746572656420766f7465720000000000000000000081525060400191505060405180910390fd5b600360058111156107aa57fe5b600460009054906101000a900460ff1660058111156107c557fe5b141515610860576040517f08c379a00000000000000000000000000000000000000000000000000000000081526004018080602001828103825260368152602001807f746869732066756e6374696f6e2063616e2062652063616c6c6564206f6e6c7981526020017f20647572696e6720766f74696e672073657373696f6e0000000000000000000081525060400191505060405180910390fd5b600160003373ffffffffffffffffffffffffffffffffffffffff1673ffffffffffffffffffffffffffffffffffffffff16815260200190815260200160002060000160019054906101000a900460ff16151515610925576040517f08c379a000000000000000000000000000000000000000000000000000000000815260040180806020018281038252601c8152602001807f7468652063616c6c65722068617320616c726561647920766f7465640000000081525060200191505060405180910390fd5b60018060003373ffffffffffffffffffffffffffffffffffffffff1673ffffffffffffffffffffffffffffffffffffffff16815260200190815260200160002060000160016101000a81548160ff02191690831515021790555080600160003373ffffffffffffffffffffffffffffffffffffffff1673ffffffffffffffffffffffffffffffffffffffff1681526020019081526020016000206001018190555060016002828154811015156109d757fe5b9060005260206000209060020201600101600082825401925050819055507f0902475a854b82199b4f5d6b81327ec4c4ec077ce0356a106ddc2748c5285ed33382604051808373ffffffffffffffffffffffffffffffffffffffff1673ffffffffffffffffffffffffffffffffffffffff1681526020018281526020019250505060405180910390a150565b600281815481101515610a7257fe5b9060005260206000209060020201600091509050806000018054600181600116156101000203166002900480601f016020809104026020016040519081016040528092919081815260200182805460018160011615610100020316600290048015610b1e5780601f10610af357610100808354040283529160200191610b1e565b820191906000526020600020905b815481529060010190602001808311610b0157829003601f168201915b5050505050908060010154905082565b60008060009054906101000a900473ffffffffffffffffffffffffffffffffffffffff1673ffffffffffffffffffffffffffffffffffffffff168273ffffffffffffffffffffffffffffffffffffffff16149050919050565b6060600282815481101515610b9857fe5b90600052602060002090600202016000018054600181600116156101000203166002900480601f016020809104026020016040519081016040528092919081815260200182805460018160011615610100020316600290048015610c3d5780601f10610c1257610100808354040283529160200191610c3d565b820191906000526020600020905b815481529060010190602001808311610c2057829003601f168201915b50505050509050919050565b600160003373ffffffffffffffffffffffffffffffffffffffff1673ffffffffffffffffffffffffffffffffffffffff16815260200190815260200160002060000160009054906101000a900460ff161515610d33576040517f08c379a00000000000000000000000000000000000000000000000000000000081526004018080602001828103825260368152602001807f7468652063616c6c6572206f6620746869732066756e6374696f6e206d75737481526020017f2062652061207265676973746572656420766f7465720000000000000000000081525060400191505060405180910390fd5b60016005811115610d4057fe5b600460009054906101000a900460ff166005811115610d5b57fe5b141515610df6576040517f08c379a000000000000000000000000000000000000000000000000000000000815260040180806020018281038252603e8152602001807f746869732066756e6374696f6e2063616e2062652063616c6c6564206f6e6c7981526020017f20647572696e672070726f706f73616c7320726567697374726174696f6e000081525060400191505060405180910390fd5b600260408051908101604052808381526020016000815250908060018154018082558091505090600182039060005260206000209060020201600090919290919091506000820151816000019080519060200190610e5592919061236a565b50602082015181600101555050507fdcd2e8cd237900037efa515c36a3caa6812766647c16535dd5fc3c6fd641154c6001600280549050036040518082815260200191505060405180910390a150565b6000600580811115610eb357fe5b600460009054906101000a900460ff166005811115610ece57fe5b141515610f69576040517f08c379a000000000000000000000000000000000000000000000000000000000815260040180806020018281038252603e8152602001807f746869732066756e6374696f6e2063616e2062652063616c6c6564206f6e6c7981526020017f20616674657220766f7465732068617665206265656e2074616c6c696564000081525060400191505060405180910390fd5b6002600354815481101515610f7a57fe5b906000526020600020906002020160010154905090565b60008060008060009054906101000a900473ffffffffffffffffffffffffffffffffffffffff1673ffffffffffffffffffffffffffffffffffffffff163373ffffffffffffffffffffffffffffffffffffffff16141515611080576040517f08c379a00000000000000000000000000000000000000000000000000000000081526004018080602001828103825260358152602001807f7468652063616c6c6572206f6620746869732066756e6374696f6e206d75737481526020017f206265207468652061646d696e6973747261746f72000000000000000000000081525060400191505060405180910390fd5b6004600581111561108d57fe5b600460009054906101000a900460ff1660058111156110a857fe5b141515611143576040517f08c379a000000000000000000000000000000000000000000000000000000000815260040180806020018281038252603f8152602001807f746869732066756e6374696f6e2063616e2062652063616c6c6564206f6e6c7981526020017f20616674657220766f74696e672073657373696f6e2068617320656e6465640081525060400191505060405180910390fd5b6000925060009150600090505b6002805490508110156111b9578260028281548110151561116d57fe5b90600052602060002090600202016001015411156111ac5760028181548110151561119457fe5b90600052602060002090600202016001015492508091505b8080600101915050611150565b816003819055506005600460006101000a81548160ff021916908360058111156111df57fe5b02179055507fa1f82a14ea162408785ef8969f7cf08b2bb72b081f8d4e2eda49846e52f439c660405160405180910390a17fba86f72b1a40550a84fd0b8c58f2b8bcedb2d9025a2e5d093d49878b0bcbf5b660048060009054906101000a900460ff166040518083600581111561125257fe5b60ff16815260200182600581111561126657fe5b60ff1681526020019250505060405180910390a1505050565b606060058081111561128d57fe5b600460009054906101000a900460ff1660058111156112a857fe5b141515611343576040517f08c379a000000000000000000000000000000000000000000000000000000000815260040180806020018281038252603e8152602001807f746869732066756e6374696f6e2063616e2062652063616c6c6564206f6e6c7981526020017f20616674657220766f7465732068617665206265656e2074616c6c696564000081525060400191505060405180910390fd5b600260035481548110151561135457fe5b90600052602060002090600202016000018054600181600116156101000203166002900480601f0160208091040260200160405190810160405280929190818152602001828054600181600116156101000203166002900480156113f95780601f106113ce576101008083540402835291602001916113f9565b820191906000526020600020905b8154815290600101906020018083116113dc57829003601f168201915b5050505050905090565b6000809054906101000a900473ffffffffffffffffffffffffffffffffffffffff1673ffffffffffffffffffffffffffffffffffffffff163373ffffffffffffffffffffffffffffffffffffffff161415156114ed576040517f08c379a00000000000000000000000000000000000000000000000000000000081526004018080602001828103825260358152602001807f7468652063616c6c6572206f6620746869732066756e6374696f6e206d75737481526020017f206265207468652061646d696e6973747261746f72000000000000000000000081525060400191505060405180910390fd5b600060058111156114fa57fe5b600460009054906101000a900460ff16600581111561151557fe5b1415156115b0576040517f08c379a000000000000000000000000000000000000000000000000000000000815260040180806020018281038252603b8152602001807f746869732066756e6374696f6e2063616e2062652063616c6c6564206f6e6c7981526020017f20647572696e6720766f7465727320726567697374726174696f6e000000000081525060400191505060405180910390fd5b600160008273ffffffffffffffffffffffffffffffffffffffff1673ffffffffffffffffffffffffffffffffffffffff16815260200190815260200160002060000160009054906101000a900460ff16151515611675576040517f08c379a000000000000000000000000000000000000000000000000000000000815260040180806020018281038252601f8152602001807f74686520766f74657220697320616c726561647920726567697374657265640081525060200191505060405180910390fd5b60018060008373ffffffffffffffffffffffffffffffffffffffff1673ffffffffffffffffffffffffffffffffffffffff16815260200190815260200160002060000160006101000a81548160ff0219169083151502179055506000600160008373ffffffffffffffffffffffffffffffffffffffff1673ffffffffffffffffffffffffffffffffffffffff16815260200190815260200160002060000160016101000a81548160ff0219169083151502179055506000600160008373ffffffffffffffffffffffffffffffffffffffff1673ffffffffffffffffffffffffffffffffffffffff168152602001908152602001600020600101819055507f42b360c89ba65a59ac7fec024a7bbb2c21d84b5abe5b5178ba0d7e34653a813081604051808273ffffffffffffffffffffffffffffffffffffffff1673ffffffffffffffffffffffffffffffffffffffff16815260200191505060405180910390a150565b6000600280549050905090565b6000809054906101000a900473ffffffffffffffffffffffffffffffffffffffff1673ffffffffffffffffffffffffffffffffffffffff163373ffffffffffffffffffffffffffffffffffffffff161415156118cf576040517f08c379a00000000000000000000000000000000000000000000000000000000081526004018080602001828103825260358152602001807f7468652063616c6c6572206f6620746869732066756e6374696f6e206d75737481526020017f206265207468652061646d696e6973747261746f72000000000000000000000081525060400191505060405180910390fd5b600160058111156118dc57fe5b600460009054906101000a900460ff1660058111156118f757fe5b141515611992576040517f08c379a000000000000000000000000000000000000000000000000000000000815260040180806020018281038252603e8152602001807f746869732066756e6374696f6e2063616e2062652063616c6c6564206f6e6c7981526020017f20647572696e672070726f706f73616c7320726567697374726174696f6e000081525060400191505060405180910390fd5b6002600460006101000a81548160ff021916908360058111156119b157fe5b02179055507ff629233eb3546085ffcbbb79c947a38b98b14a6915bcc004a0c1a34ae38c29d860405160405180910390a17fba86f72b1a40550a84fd0b8c58f2b8bcedb2d9025a2e5d093d49878b0bcbf5b66001600460009054906101000a900460ff1660405180836005811115611a2557fe5b60ff168152602001826005811115611a3957fe5b60ff1681526020019250505060405180910390a1565b600460009054906101000a900460ff1681565b60016020528060005260406000206000915090508060000160009054906101000a900460ff16908060000160019054906101000a900460ff16908060010154905083565b6000809054906101000a900473ffffffffffffffffffffffffffffffffffffffff1673ffffffffffffffffffffffffffffffffffffffff163373ffffffffffffffffffffffffffffffffffffffff16141515611b90576040517f08c379a00000000000000000000000000000000000000000000000000000000081526004018080602001828103825260358152602001807f7468652063616c6c6572206f6620746869732066756e6374696f6e206d75737481526020017f206265207468652061646d696e6973747261746f72000000000000000000000081525060400191505060405180910390fd5b60036005811115611b9d57fe5b600460009054906101000a900460ff166005811115611bb857fe5b141515611c53576040517f08c379a00000000000000000000000000000000000000000000000000000000081526004018080602001828103825260368152602001807f746869732066756e6374696f6e2063616e2062652063616c6c6564206f6e6c7981526020017f20647572696e6720766f74696e672073657373696f6e0000000000000000000081525060400191505060405180910390fd5b60048060006101000a81548160ff02191690836005811115611c7157fe5b02179055507f86a7e3ed2917a2b5f100160b6e558c8e7ae6e4fb8f2673d860d3f11b4f345e7260405160405180910390a17fba86f72b1a40550a84fd0b8c58f2b8bcedb2d9025a2e5d093d49878b0bcbf5b66003600460009054906101000a900460ff1660405180836005811115611ce557fe5b60ff168152602001826005811115611cf957fe5b60ff1681526020019250505060405180910390a1565b6000600160008373ffffffffffffffffffffffffffffffffffffffff1673ffffffffffffffffffffffffffffffffffffffff16815260200190815260200160002060000160009054906101000a900460ff169050919050565b6000809054906101000a900473ffffffffffffffffffffffffffffffffffffffff1673ffffffffffffffffffffffffffffffffffffffff163373ffffffffffffffffffffffffffffffffffffffff16141515611e52576040517f08c379a00000000000000000000000000000000000000000000000000000000081526004018080602001828103825260358152602001807f7468652063616c6c6572206f6620746869732066756e6374696f6e206d75737481526020017f206265207468652061646d696e6973747261746f72000000000000000000000081525060400191505060405180910390fd5b60006005811115611e5f57fe5b600460009054906101000a900460ff166005811115611e7a57fe5b141515611f15576040517f08c379a000000000000000000000000000000000000000000000000000000000815260040180806020018281038252603b8152602001807f746869732066756e6374696f6e2063616e2062652063616c6c6564206f6e6c7981526020017f20647572696e6720766f7465727320726567697374726174696f6e000000000081525060400191505060405180910390fd5b6001600460006101000a81548160ff02191690836005811115611f3457fe5b02179055507f65b51a6e225dbda234ac3ca54831842456809aa60205dd84e758670106b4a6f360405160405180910390a17fba86f72b1a40550a84fd0b8c58f2b8bcedb2d9025a2e5d093d49878b0bcbf5b66000600460009054906101000a900460ff1660405180836005811115611fa857fe5b60ff168152602001826005811115611fbc57fe5b60ff1681526020019250505060405180910390a1565b6000600580811115611fe057fe5b600460009054906101000a900460ff166005811115611ffb57fe5b141515612096576040517f08c379a000000000000000000000000000000000000000000000000000000000815260040180806020018281038252603e8152602001807f746869732066756e6374696f6e2063616e2062652063616c6c6564206f6e6c7981526020017f20616674657220766f7465732068617665206265656e2074616c6c696564000081525060400191505060405180910390fd5b600354905090565b6000809054906101000a900473ffffffffffffffffffffffffffffffffffffffff1673ffffffffffffffffffffffffffffffffffffffff163373ffffffffffffffffffffffffffffffffffffffff16141515612188576040517f08c379a00000000000000000000000000000000000000000000000000000000081526004018080602001828103825260358152602001807f7468652063616c6c6572206f6620746869732066756e6374696f6e206d75737481526020017f206265207468652061646d696e6973747261746f72000000000000000000000081525060400191505060405180910390fd5b6002600581111561219557fe5b600460009054906101000a900460ff1660058111156121b057fe5b141515612271576040517f08c379a00000000000000000000000000000000000000000000000000000000081526004018080602001828103825260478152602001807f746869732066756e6374696f6e2063616e2062652063616c6c6564206f6e6c7981526020017f2061667465722070726f706f73616c7320726567697374726174696f6e20686181526020017f7320656e6465640000000000000000000000000000000000000000000000000081525060600191505060405180910390fd5b6003600460006101000a81548160ff0219169083600581111561229057fe5b02179055507ffca8377aff3a08252b769c58e6769a534922eabaaf9952691ea9cfcaed41fbd860405160405180910390a17fba86f72b1a40550a84fd0b8c58f2b8bcedb2d9025a2e5d093d49878b0bcbf5b66002600460009054906101000a900460ff166040518083600581111561230457fe5b60ff16815260200182600581111561231857fe5b60ff1681526020019250505060405180910390a1565b6000809054906101000a900473ffffffffffffffffffffffffffffffffffffffff1681565b6000600460009054906101000a900460ff16905090565b828054600181600116156101000203166002900490600052602060002090601f016020900481019282601f106123ab57805160ff19168380011785556123d9565b828001600101855582156123d9579182015b828111156123d85782518255916020019190600101906123bd565b5b5090506123e691906123ea565b5090565b61240c91905b808211156124085760008160009055506001016123f0565b5090565b905600a165627a7a7230582079ff120ddae8cdb49e2bb52e55fc78709f7c29e00c5ee27750a8e8b1af6b87aa0029",
  "source": "pragma solidity ^0.4.22;\n\ncontract SimpleVoting {\n    struct Voter {\n        bool isRegistered;\n        bool hasVoted;\n        uint votedProposalId;\n    }\n    struct Proposal {\n        string description;\n        uint voteCount;\n    }\n    enum WorkflowStatus {\n        RegisteringVoters,\n        ProposalsRegistrationStarted,\n        ProposalsRegistrationEnded,\n        VotingSessionStarted,\n        VotingSessionEnded,\n        VotesTallied\n    }\n\n\n    address public administrator;\n    mapping (address => Voter) public voters;\n    Proposal[] public proposals;\n    uint private winningProposalId;\n    WorkflowStatus public workflowStatus;\n\n\n    modifier onlyAdministrator() {\n        require(msg.sender == administrator,\n            \"the caller of this function must be the administrator\");\n        _;\n    }\n    modifier onlyRegisteredVoter() {\n        require(voters[msg.sender].isRegistered,\n            \"the caller of this function must be a registered voter\");\n        _;\n    }\n\n    modifier onlyDuringVotersRegistration() {\n        require(workflowStatus == WorkflowStatus.RegisteringVoters,\n            \"this function can be called only during voters registration\");\n        _;\n    }\n    modifier onlyDuringProposalsRegistration() {\n        require(workflowStatus == WorkflowStatus.ProposalsRegistrationStarted,\n            \"this function can be called only during proposals registration\");\n        _;\n    }\n    modifier onlyAfterProposalsRegistration() {\n        require(workflowStatus == WorkflowStatus.ProposalsRegistrationEnded,\n            \"this function can be called only after proposals registration has ended\");\n        _;\n    }\n    modifier onlyDuringVotingSession() {\n        require(workflowStatus == WorkflowStatus.VotingSessionStarted,\n            \"this function can be called only during voting session\");\n        _;\n    }\n    modifier onlyAfterVotingSession() {\n        require(workflowStatus == WorkflowStatus.VotingSessionEnded,\n            \"this function can be called only after voting session has ended\");\n        _;\n    }\n    modifier onlyAfterVotesTallied() {\n        require(workflowStatus == WorkflowStatus.VotesTallied,\n            \"this function can be called only after votes have been tallied\");\n        _;\n    }\n\n\n    event VoterRegisteredEvent (address voterAddress);\n\n    event ProposalsRegistrationStartedEvent ();\n    event ProposalsRegistrationEndedEvent ();\n    event ProposalRegisteredEvent (uint proposalId);\n\n    event VotingSessionStartedEvent ();\n    event VotingSessionEndedEvent ();\n    event VotedEvent (address voter, uint proposalId);\n    \n    event VotesTalliedEvent ();\n\n    event WorkflowStatusChangedEvent (WorkflowStatus previousStatus, WorkflowStatus newStatus);\n\n\n    constructor() public {\n        administrator = msg.sender;\n        workflowStatus = WorkflowStatus.RegisteringVoters;\n    }\n\n    function isAdministrator(address _address)\n        public view returns (bool) {\n        \n        return _address == administrator;\n    }\n    function isRegisteredVoter(address _address)\n        public view returns (bool) {\n\n        return voters[_address].isRegistered;\n    }\n\n    function registerVoter(address _voterAddress)\n        public onlyAdministrator onlyDuringVotersRegistration {\n        \n        require(!voters[_voterAddress].isRegistered,\n            \"the voter is already registered\");\n        \n        voters[_voterAddress].isRegistered = true;\n        voters[_voterAddress].hasVoted = false;\n        voters[_voterAddress].votedProposalId = 0;\n\n        emit VoterRegisteredEvent(_voterAddress);\n    }\n\n    function startProposalsRegistration()\n        public onlyAdministrator onlyDuringVotersRegistration {\n        \n        workflowStatus = WorkflowStatus.ProposalsRegistrationStarted;\n\n        emit ProposalsRegistrationStartedEvent();\n        emit WorkflowStatusChangedEvent(\n            WorkflowStatus.RegisteringVoters,\n            workflowStatus\n        );\n    }\n    function endProposalsRegistration()\n        public onlyAdministrator onlyDuringProposalsRegistration {\n        \n        workflowStatus = WorkflowStatus.ProposalsRegistrationEnded;\n\n        emit ProposalsRegistrationEndedEvent();\n        emit WorkflowStatusChangedEvent(\n            WorkflowStatus.ProposalsRegistrationStarted,\n            workflowStatus\n        );\n    }\n    function registerProposal(string _proposalDescription)\n        public onlyRegisteredVoter onlyDuringProposalsRegistration {\n        \n        proposals.push(\n            Proposal({\n                description : _proposalDescription,\n                voteCount : 0\n            })\n        );\n\n        emit ProposalRegisteredEvent(proposals.length - 1);\n    }\n\n    function getProposalsNumber() public view returns (uint) {\n        return proposals.length;\n    }\n    function getProposalDescription(uint _index) public view\n        returns (string) {\n        return proposals[_index].description;\n    }\n\n    function startVotingSession()\n        public onlyAdministrator onlyAfterProposalsRegistration {\n        \n        workflowStatus = WorkflowStatus.VotingSessionStarted;\n\n        emit VotingSessionStartedEvent();\n        emit WorkflowStatusChangedEvent(\n            WorkflowStatus.ProposalsRegistrationEnded,\n            workflowStatus\n        );\n    }\n    function endVotingSession()\n        public onlyAdministrator onlyDuringVotingSession {\n        \n        workflowStatus = WorkflowStatus.VotingSessionEnded;\n\n        emit VotingSessionEndedEvent();\n        emit WorkflowStatusChangedEvent(\n            WorkflowStatus.VotingSessionStarted,\n            workflowStatus\n        );\n    }\n    function vote(uint _proposalId)\n        public onlyRegisteredVoter onlyDuringVotingSession {\n        \n        require(!voters[msg.sender].hasVoted,\n            \"the caller has already voted\");\n        \n        voters[msg.sender].hasVoted = true;\n        voters[msg.sender].votedProposalId = _proposalId;\n\n        proposals[_proposalId].voteCount += 1;\n\n        emit VotedEvent(msg.sender, _proposalId);\n    }\n\n    function tallyVotes()\n        public onlyAdministrator onlyAfterVotingSession {\n\n        uint winningVoteCount = 0;\n        uint winningProposalIndex = 0;\n\n        for (uint i=0; i<proposals.length; i++) {\n            if (proposals[i].voteCount > winningVoteCount) {\n                winningVoteCount = proposals[i].voteCount;\n                winningProposalIndex = i;\n            }\n        }\n\n        winningProposalId = winningProposalIndex;\n        workflowStatus = WorkflowStatus.VotesTallied;\n\n        emit VotesTalliedEvent();\n        emit WorkflowStatusChangedEvent(\n            WorkflowStatus.VotingSessionEnded,\n            workflowStatus\n        );\n    }\n\n    function getWinningProposalId()\n        public view onlyAfterVotesTallied returns (uint) {\n        \n        return winningProposalId;\n    }\n    function getWinningProposalDescription()\n        public view onlyAfterVotesTallied returns (string) {\n\n        return proposals[winningProposalId].description;        \n    }\n    function getWinningProposalVoteCount()\n        public view onlyAfterVotesTallied returns (uint) {\n        \n        return proposals[winningProposalId].voteCount;\n    }\n    \n    function getWorkflowStatus() public view returns (WorkflowStatus) {\n        return workflowStatus;\n    }\n}",
  "sourcePath": "/Users/jihyo/Desktop/dapp-tutorials-simple-voting/simple-voting/contracts/SimpleVoting.sol",
  "compiler": {
    "name": "solc",
    "version": "0.4.25+commit.59dbf8f1.Emscripten.clang"
  },
  "schemaVersion": "2.0.2",
  "updatedAt": "2021-01-28T15:20:33.246Z"
}